{
  "_format": "hh-sol-artifact-1",
  "contractName": "FundNPC",
  "sourceName": "contracts/FundNPC.sol",
  "abi": [
    {
      "inputs": [],
      "name": "InvalidInitialization",
      "type": "error"
    },
    {
      "inputs": [],
      "name": "NotInitializing",
      "type": "error"
    },
    {
      "inputs": [
        {
          "internalType": "address",
          "name": "owner",
          "type": "address"
        }
      ],
      "name": "OwnableInvalidOwner",
      "type": "error"
    },
    {
      "inputs": [
        {
          "internalType": "address",
          "name": "account",
          "type": "address"
        }
      ],
      "name": "OwnableUnauthorizedAccount",
      "type": "error"
    },
    {
      "inputs": [
        {
          "internalType": "address",
          "name": "token",
          "type": "address"
        }
      ],
      "name": "SafeERC20FailedOperation",
      "type": "error"
    },
    {
      "anonymous": false,
      "inputs": [
        {
          "indexed": false,
          "internalType": "address",
          "name": "oldRecipient",
          "type": "address"
        },
        {
          "indexed": false,
          "internalType": "address",
          "name": "newRecipient",
          "type": "address"
        }
      ],
      "name": "FeeRecipientChanged",
      "type": "event"
    },
    {
      "anonymous": false,
      "inputs": [
        {
          "indexed": false,
          "internalType": "address",
          "name": "sender",
          "type": "address"
        },
        {
          "indexed": false,
          "internalType": "address",
          "name": "token",
          "type": "address"
        },
        {
          "indexed": false,
          "internalType": "address[]",
          "name": "walletSet",
          "type": "address[]"
        },
        {
          "indexed": false,
          "internalType": "uint256",
          "name": "amount",
          "type": "uint256"
        },
        {
          "indexed": false,
          "internalType": "uint256",
          "name": "fee",
          "type": "uint256"
        }
      ],
      "name": "FundsDeposited",
      "type": "event"
    },
    {
      "anonymous": false,
      "inputs": [
        {
          "indexed": false,
          "internalType": "address",
          "name": "sender",
          "type": "address"
        },
        {
          "indexed": false,
          "internalType": "address",
          "name": "token",
          "type": "address"
        },
        {
          "indexed": false,
          "internalType": "address[]",
          "name": "recipients",
          "type": "address[]"
        },
        {
          "indexed": false,
          "internalType": "uint256[]",
          "name": "amounts",
          "type": "uint256[]"
        },
        {
          "indexed": false,
          "internalType": "uint256",
          "name": "totalAmount",
          "type": "uint256"
        },
        {
          "indexed": false,
          "internalType": "uint256",
          "name": "fee",
          "type": "uint256"
        }
      ],
      "name": "FundsDepositedCustom",
      "type": "event"
    },
    {
      "anonymous": false,
      "inputs": [
        {
          "indexed": false,
          "internalType": "address",
          "name": "token",
          "type": "address"
        },
        {
          "indexed": false,
          "internalType": "address[]",
          "name": "recipients",
          "type": "address[]"
        },
        {
          "indexed": false,
          "internalType": "uint256",
          "name": "amountPerRecipient",
          "type": "uint256"
        }
      ],
      "name": "FundsDistributed",
      "type": "event"
    },
    {
      "anonymous": false,
      "inputs": [
        {
          "indexed": false,
          "internalType": "address",
          "name": "token",
          "type": "address"
        },
        {
          "indexed": false,
          "internalType": "address[]",
          "name": "recipients",
          "type": "address[]"
        },
        {
          "indexed": false,
          "internalType": "uint256[]",
          "name": "amounts",
          "type": "uint256[]"
        }
      ],
      "name": "FundsDistributedCustom",
      "type": "event"
    },
    {
      "anonymous": false,
      "inputs": [
        {
          "indexed": false,
          "internalType": "uint64",
          "name": "version",
          "type": "uint64"
        }
      ],
      "name": "Initialized",
      "type": "event"
    },
    {
      "anonymous": false,
      "inputs": [
        {
          "indexed": true,
          "internalType": "address",
          "name": "previousOwner",
          "type": "address"
        },
        {
          "indexed": true,
          "internalType": "address",
          "name": "newOwner",
          "type": "address"
        }
      ],
      "name": "OwnershipTransferred",
      "type": "event"
    },
    {
      "inputs": [],
      "name": "FEE_BPS",
      "outputs": [
        {
          "internalType": "uint256",
          "name": "",
          "type": "uint256"
        }
      ],
      "stateMutability": "view",
      "type": "function"
    },
    {
      "inputs": [],
      "name": "MAX_BPS",
      "outputs": [
        {
          "internalType": "uint256",
          "name": "",
          "type": "uint256"
        }
      ],
      "stateMutability": "view",
      "type": "function"
    },
    {
      "inputs": [
        {
          "internalType": "address",
          "name": "",
          "type": "address"
        },
        {
          "internalType": "address",
          "name": "",
          "type": "address"
        }
      ],
      "name": "customDeposits",
      "outputs": [
        {
          "internalType": "uint256",
          "name": "totalDeposited",
          "type": "uint256"
        },
        {
          "internalType": "bool",
          "name": "isETH",
          "type": "bool"
        }
      ],
      "stateMutability": "view",
      "type": "function"
    },
    {
      "inputs": [
        {
          "internalType": "address",
          "name": "_tokenAddress",
          "type": "address"
        },
        {
          "internalType": "address[]",
          "name": "_walletSet",
          "type": "address[]"
        },
        {
          "internalType": "uint256",
          "name": "_amount",
          "type": "uint256"
        }
      ],
      "name": "deposit",
      "outputs": [],
      "stateMutability": "nonpayable",
      "type": "function"
    },
    {
      "inputs": [
        {
          "internalType": "address",
          "name": "_tokenAddress",
          "type": "address"
        },
        {
          "internalType": "address[]",
          "name": "recipients",
          "type": "address[]"
        },
        {
          "internalType": "uint256[]",
          "name": "amounts",
          "type": "uint256[]"
        }
      ],
      "name": "depositCustom",
      "outputs": [],
      "stateMutability": "nonpayable",
      "type": "function"
    },
    {
      "inputs": [
        {
          "internalType": "address[]",
          "name": "recipients",
          "type": "address[]"
        },
        {
          "internalType": "uint256[]",
          "name": "amounts",
          "type": "uint256[]"
        }
      ],
      "name": "depositCustomETH",
      "outputs": [],
      "stateMutability": "payable",
      "type": "function"
    },
    {
      "inputs": [
        {
          "internalType": "address[]",
          "name": "_walletSet",
          "type": "address[]"
        }
      ],
      "name": "depositETH",
      "outputs": [],
      "stateMutability": "payable",
      "type": "function"
    },
    {
      "inputs": [
        {
          "internalType": "address",
          "name": "",
          "type": "address"
        }
      ],
      "name": "deposits",
      "outputs": [
        {
          "internalType": "uint256",
          "name": "reserveBalance",
          "type": "uint256"
        },
        {
          "internalType": "bool",
          "name": "isETH",
          "type": "bool"
        }
      ],
      "stateMutability": "view",
      "type": "function"
    },
    {
      "inputs": [
        {
          "internalType": "address",
          "name": "_tokenAddress",
          "type": "address"
        },
        {
          "internalType": "address",
          "name": "depositor",
          "type": "address"
        }
      ],
      "name": "distributeCustom",
      "outputs": [],
      "stateMutability": "nonpayable",
      "type": "function"
    },
    {
      "inputs": [
        {
          "internalType": "address",
          "name": "_tokenAddress",
          "type": "address"
        }
      ],
      "name": "distributeFunds",
      "outputs": [],
      "stateMutability": "nonpayable",
      "type": "function"
    },
    {
      "inputs": [],
      "name": "feeRecipient",
      "outputs": [
        {
          "internalType": "address",
          "name": "",
          "type": "address"
        }
      ],
      "stateMutability": "view",
      "type": "function"
    },
    {
      "inputs": [
        {
          "internalType": "address",
          "name": "_tokenAddress",
          "type": "address"
        },
        {
          "internalType": "address",
          "name": "depositor",
          "type": "address"
        }
      ],
      "name": "getCustomDeposit",
      "outputs": [
        {
          "internalType": "address[]",
          "name": "recipients",
          "type": "address[]"
        },
        {
          "internalType": "uint256[]",
          "name": "amounts",
          "type": "uint256[]"
        },
        {
          "internalType": "uint256",
          "name": "totalDeposited",
          "type": "uint256"
        },
        {
          "internalType": "bool",
          "name": "isETH",
          "type": "bool"
        }
      ],
      "stateMutability": "view",
      "type": "function"
    },
    {
      "inputs": [
        {
          "internalType": "address",
          "name": "_tokenAddress",
          "type": "address"
        }
      ],
      "name": "getReserveBalance",
      "outputs": [
        {
          "internalType": "uint256",
          "name": "",
          "type": "uint256"
        }
      ],
      "stateMutability": "view",
      "type": "function"
    },
    {
      "inputs": [
        {
          "internalType": "address",
          "name": "_tokenAddress",
          "type": "address"
        }
      ],
      "name": "getWalletSet",
      "outputs": [
        {
          "internalType": "address[]",
          "name": "",
          "type": "address[]"
        }
      ],
      "stateMutability": "view",
      "type": "function"
    },
    {
      "inputs": [],
      "name": "initialize",
      "outputs": [],
      "stateMutability": "nonpayable",
      "type": "function"
    },
    {
      "inputs": [],
      "name": "owner",
      "outputs": [
        {
          "internalType": "address",
          "name": "",
          "type": "address"
        }
      ],
      "stateMutability": "view",
      "type": "function"
    },
    {
      "inputs": [],
      "name": "renounceOwnership",
      "outputs": [],
      "stateMutability": "nonpayable",
      "type": "function"
    },
    {
      "inputs": [
        {
          "internalType": "address",
          "name": "_newRecipient",
          "type": "address"
        }
      ],
      "name": "setFeeRecipient",
      "outputs": [],
      "stateMutability": "nonpayable",
      "type": "function"
    },
    {
      "inputs": [
        {
          "internalType": "address",
          "name": "newOwner",
          "type": "address"
        }
      ],
      "name": "transferOwnership",
      "outputs": [],
      "stateMutability": "nonpayable",
      "type": "function"
    },
    {
      "stateMutability": "payable",
      "type": "receive"
    }
  ],
  "bytecode": "0x60808060405234601557611b08908161001b8239f35b600080fdfe6080604052600436101561001b575b361561001957600080fd5b005b60003560e01c806306329a52146110e55780631098d5cb1461102857806315226b5414610feb57806331ba8a2214610d6b57806341abfdc014610bed57806343a2a0d5146109b5578063469048401461098c578063715018a6146109225780638129fc1c146107ca5780638da5cb5b14610794578063aa3e35e61461072d578063b640f7c7146106ce578063bf333f2c146106b2578063d7e3e0481461040f578063e74b981b1461034f578063e99d8d501461019b578063f2fde38b14610172578063fc7e286d146101135763fd967f470361000e573461010e57600036600319011261010e5760206040516127108152f35b600080fd5b3461010e57602036600319011261010e576001600160a01b036101346113c2565b166000526000602052604060002060ff60026001830154920154169061016e60405192839283909291602090604083019483521515910152565b0390f35b3461010e57602036600319011261010e5761001961018e6113c2565b6101966119d3565b6118b4565b602036600319011261010e576004356001600160401b03811161010e576101c6903690600401611441565b6101d28151151561178c565b6101dd3415156117d5565b6101e63461192a565b600080805260205282519091907fad3228b676f7d3cd4284a5443f17f1962b36e491b30a40b2405849e597ba5fb56001600160401b0382116103395761022c8282611696565b6020850190600052602060002060005b83811061031c577fa40b641fe8fbfe962e025ba3ccdfb30723cb1594b98d9409848112bcb1c12c576102e38888886000805260006020526001604060002001610286838254611632565b905560008080526020527fad3228b676f7d3cd4284a5443f17f1962b36e491b30a40b2405849e597ba5fb7805460ff19166001179055806102f3575b6040519384933385526000602086015260a0604086015260a085019061150c565b91606084015260808301520390a1005b61031760008080808560018060a01b03600254165af161031161182f565b5061186e565b6102c2565b82516001600160a01b03168183015560209092019160010161023c565b634e487b7160e01b600052604160045260246000fd5b3461010e57602036600319011261010e576103686113c2565b6103706119d3565b6001600160a01b031680156103d257600280546001600160a01b031981168317909155604080516001600160a01b03909216825260208201929092527f0bc21fe5c3ab742ff1d15b5c4477ffbacf1167e618228078fa625edebe7f331d9190a1005b60405162461bcd60e51b8152602060048201526015602482015274125b9d985b1a5908199959481c9958da5c1a595b9d605a1b6044820152606490fd5b604036600319011261010e576004356001600160401b03811161010e5761043a903690600401611441565b6024356001600160401b03811161010e576104599036906004016114af565b9061046f815180151590816106a7575b506115c1565b6000805b835182101561049b5761049360019161048c8487611608565b5190611632565b910190610473565b90506104a68161192a565b913403610662578061063f575b604051936104c0856113ee565b83855260208086018281526040808801868152600160608a019081523360009081527fa6eef7e35abe7026729641147f7915573c7e97b47efa546f5f6e3230263bcb4990955291909320975180519298939192906001600160401b0382116103395760209061052f8387611696565b0184600052602060002060005b83811061062257505050506001830197518051906001600160401b0382116103395760209061056b838c611696565b019860005260206000209860005b82811061060e577f06dbb8e6f89cc91d5de0a0aa5cc92eae271553f48ca2abaf426a0af3493cde656105f08b8b8b6105fe8c6105cf8d60038e8e51600284015551151591019060ff801983541691151516179055565b6040519586953387526000602088015260c0604088015260c087019061150c565b908582036060870152611549565b91608084015260a08301520390a1005b60019060208351930192818d015501610579565b82516001600160a01b03168183015560209092019160010161053c565b61065d60008080808560018060a01b03600254165af161031161182f565b6104b3565b60405162461bcd60e51b815260206004820152601c60248201527f4554482073656e74206d69736d61746368207769746820746f74616c000000006044820152606490fd5b905083511484610469565b3461010e57600036600319011261010e576020604051600a8152f35b3461010e57602036600319011261010e576001600160a01b036106ef6113c2565b16600052600060205261016e6107126107196040600020604051928380926116b2565b0382611409565b60405191829160208352602083019061150c565b3461010e57604036600319011261010e576107466113c2565b61074e6113d8565b6001600160a01b0391821660009081526001602090815260408083209390941682529182528290206002810154600390910154835191825260ff16151591810191909152f35b3461010e57600036600319011261010e57600080516020611a93833981519152546040516001600160a01b039091168152602090f35b3461010e57600036600319011261010e57600080516020611ab38339815191525460ff8160401c1615906001600160401b0381168015908161091a575b6001149081610910575b159081610907575b506108f65767ffffffffffffffff198116600117600080516020611ab383398151915255816108c9575b5061084c611a64565b610854611a64565b61085d336118b4565b600280546001600160a01b0319163317905561087557005b60ff60401b19600080516020611ab38339815191525416600080516020611ab3833981519152557fc7f505b2f371ae2175ee4913f4499e1f2633a7b5936321eed1cdaeb6115181d2602060405160018152a1005b68ffffffffffffffffff19166801000000000000000117600080516020611ab38339815191525581610843565b63f92ee8a960e01b60005260046000fd5b90501583610819565b303b159150610811565b839150610807565b3461010e57600036600319011261010e5761093b6119d3565b600080516020611a9383398151915280546001600160a01b031981169091556000906001600160a01b03167f8be0079c531659141344cd1fd0a4f28419497f9722a3daafe3b4186f6b6457e08280a3005b3461010e57600036600319011261010e576002546040516001600160a01b039091168152602090f35b3461010e57602036600319011261010e576109ce6113c2565b6109d66119d3565b60018060a01b0316806000526000602052604060002090600182019182548015610bae578154908115610b715704918215610b2e57600282015460ff1615610abc5760005b8254811015610a6c57600080808087610a34868961172f565b905460039190911b1c6001600160a01b0316610a51811515611747565b82f115610a6057600101610a1b565b6040513d6000823e3d90fd5b50909160007fb9af02a5c9c59f6be093e774da567457d038185d5703669b5e1babb881bdc9cb945b55610ab160405193849384526060602085015260608401906116b2565b9060408301520390a1005b9060009392935b8154811015610b025780610afc86610add6001948661172f565b858060a01b0391549060031b1c16610af6811515611747565b86611998565b01610ac3565b50919260007fb9af02a5c9c59f6be093e774da567457d038185d5703669b5e1babb881bdc9cb94610a94565b60405162461bcd60e51b815260206004820152601b60248201527a105b5bdd5b9d081c195c881dd85b1b195d081d1bdbc81cdb585b1b602a1b6044820152606490fd5b60405162461bcd60e51b8152602060048201526015602482015274139bc81dd85b1b195d1cc81a5b881d1a19481cd95d605a1b6044820152606490fd5b60405162461bcd60e51b81526020600482015260176024820152764e6f20746f6b656e7320746f206469737472696275746560481b6044820152606490fd5b3461010e57606036600319011261010e57610c066113c2565b6024356001600160401b03811161010e57610c25903690600401611441565b604435916001600160a01b0316610c3d81151561157d565b610c498251151561178c565b610c548315156117d5565b610c6b610c608461192a565b91909430338561194f565b83610d4e575b81600052600060205260406000209383516001600160401b03811161033957610c9a8187611696565b602085019560005260206000209560005b828110610d31575050507fa40b641fe8fbfe962e025ba3ccdfb30723cb1594b98d9409848112bcb1c12c5794508260005260006020526001604060002001610cf4838254611632565b9055826000526000602052600260406000200160ff1981541690556102e3604051948594338652602086015260a0604086015260a085019061150c565b81516001600160a01b031681890155602090910190600101610cab565b600254610d669085906001600160a01b031684611998565b610c71565b3461010e57604036600319011261010e57610d846113c2565b610d8c6113d8565b90610d956119d3565b6001600160a01b039081166000818152600160209081526040808320948616835293905291909120600281015415610fae57805415610f7957600381015460ff1615610ef257909160018201919060005b8254811015610e4c576000808080610dfe858861172f565b905460039190911b1c6001600160a01b0316610e1a868a61172f565b90549060031b1c90610e2d811515611747565b828215610e43575bf115610a6057600101610de6565b506108fc610e35565b50600392506000937fca789c088eaa1dc5f531501e405cb6447caf07bb1d99f91eb8dcd5eed6bd42b8610ea86040945b8551918291858352606060208401526001610e9a60608501836116b2565b918483038a860152016116f5565b0390a184526001602052818420849160018060a01b0316825260205220610ed483825481845583611662565b610ee78360018301805490828155611662565b600281018390550155005b91906001830160005b8454811015610f455780610f3f610f146001938861172f565b848060a01b0391549060031b1c16610f2c838661172f565b90549060031b1c90610af6811515611747565b01610efb565b50506003916040917fca789c088eaa1dc5f531501e405cb6447caf07bb1d99f91eb8dcd5eed6bd42b8610ea8600096610e7c565b60405162461bcd60e51b815260206004820152600d60248201526c4e6f20726563697069656e747360981b6044820152606490fd5b60405162461bcd60e51b81526020600482015260156024820152744e6f7468696e6720746f206469737472696275746560581b6044820152606490fd5b3461010e57602036600319011261010e576001600160a01b0361100c6113c2565b1660005260006020526020600160406000200154604051908152f35b3461010e57604036600319011261010e576110c660406110466113c2565b61104e6113d8565b9060018060a01b031660005260016020528160002060009160018060a01b0316825260205220600281015460ff6003830154166110d460016110b2604051956110a28761109b81846116b2565b0388611409565b61071260405180948193016116f5565b60405195869560808752608087019061150c565b908582036020870152611549565b916040840152151560608301520390f35b3461010e57606036600319011261010e576110fe6113c2565b6024356001600160401b03811161010e5761111d903690600401611441565b6044356001600160401b03811161010e5761113c9036906004016114af565b916001600160a01b03169061115282151561157d565b611166815180151590816113b757506115c1565b600090815b845183101561118c5761118460019161048c8588611608565b92019161116b565b9092915080156113725761119f8161192a565b916111aa8282611655565b830361133b576111bc9030338661194f565b8061131e575b604051946111cf866113ee565b84865260208601958187526040810184815260608201906000825286600052600160205260408060002060009060018060a01b03331682526020522092518051906001600160401b0382116103395760209061122b8387611696565b0184600052602060002060005b83811061130157505050506001830198518051906001600160401b03821161033957602090611267838d611696565b01996000526020600020996000905b8282106112ed575050507f06dbb8e6f89cc91d5de0a0aa5cc92eae271553f48ca2abaf426a0af3493cde6598509160036112cb926105fe959451600284015551151591019060ff801983541691151516179055565b6105f0604051968796338852602088015260c0604088015260c087019061150c565b80518c830155600190910190602001611276565b82516001600160a01b031681830155602090920191600101611238565b6002546113369082906001600160a01b031685611998565b6111c2565b60405162461bcd60e51b815260206004820152600f60248201526e2332b2903637b3b4b19032b93937b960891b6044820152606490fd5b60405162461bcd60e51b815260206004820152601c60248201527f546f74616c206d7573742062652067726561746572207468616e2030000000006044820152606490fd5b905084511485610469565b600435906001600160a01b038216820361010e57565b602435906001600160a01b038216820361010e57565b608081019081106001600160401b0382111761033957604052565b90601f801991011681019081106001600160401b0382111761033957604052565b6001600160401b0381116103395760051b60200190565b9080601f8301121561010e578135906114598261142a565b926114676040519485611409565b82845260208085019360051b82010191821161010e57602001915b81831061148f5750505090565b82356001600160a01b038116810361010e57815260209283019201611482565b9080601f8301121561010e5781356114c68161142a565b926114d46040519485611409565b81845260208085019260051b82010192831161010e57602001905b8282106114fc5750505090565b81358152602091820191016114ef565b906020808351928381520192019060005b81811061152a5750505090565b82516001600160a01b031684526020938401939092019160010161151d565b906020808351928381520192019060005b8181106115675750505090565b825184526020938401939092019160010161155a565b1561158457565b60405162461bcd60e51b8152602060048201526015602482015274496e76616c696420746f6b656e206164647265737360581b6044820152606490fd5b156115c857565b60405162461bcd60e51b81526020600482015260186024820152770aec2d8d8cae8e65ec2dadeeadce8e640dad2e6dac2e8c6d60431b6044820152606490fd5b805182101561161c5760209160051b010190565b634e487b7160e01b600052603260045260246000fd5b9190820180921161163f57565b634e487b7160e01b600052601160045260246000fd5b9190820391821161163f57565b91909182821061167157505050565b600052602060002091820191015b81811061168a575050565b6000815560010161167f565b90600160401b81116103395781548183556116b092611662565b565b906020825491828152019160005260206000209060005b8181106116d65750505090565b82546001600160a01b03168452602090930192600192830192016116c9565b906020825491828152019160005260206000209060005b8181106117195750505090565b825484526020909301926001928301920161170c565b805482101561161c5760005260206000200190600090565b1561174e57565b60405162461bcd60e51b8152602060048201526016602482015275496e76616c69642077616c6c6574206164647265737360501b6044820152606490fd5b1561179357565b60405162461bcd60e51b815260206004820152601a60248201527957616c6c6574207365742063616e6e6f7420626520656d70747960301b6044820152606490fd5b156117dc57565b60405162461bcd60e51b815260206004820152602560248201527f4465706f73697420616d6f756e74206d75737420626520677265617465722074604482015264068616e20360dc1b6064820152608490fd5b3d15611869573d906001600160401b038211610339576040519161185d601f8201601f191660200184611409565b82523d6000602084013e565b606090565b1561187557565b60405162461bcd60e51b815260206004820152601760248201527611551208199959481d1c985b9cd9995c8819985a5b1959604a1b6044820152606490fd5b6001600160a01b0316801561191457600080516020611a9383398151915280546001600160a01b0319811683179091556001600160a01b03167f8be0079c531659141344cd1fd0a4f28419497f9722a3daafe3b4186f6b6457e0600080a3565b631e4fbdf760e01b600052600060045260246000fd5b90600a8202828104600a148315171561163f5761271061194c91048093611655565b90565b6040516323b872dd60e01b60208201526001600160a01b0392831660248201529290911660448301526064808301939093529181526116b091611993608483611409565b611a09565b60405163a9059cbb60e01b60208201526001600160a01b0390921660248301526044808301939093529181526116b091611993606483611409565b600080516020611a93833981519152546001600160a01b031633036119f457565b63118cdaa760e01b6000523360045260246000fd5b906000602091828151910182855af115610a60576000513d611a5b57506001600160a01b0381163b155b611a3a5750565b635274afe760e01b60009081526001600160a01b0391909116600452602490fd5b60011415611a33565b60ff600080516020611ab38339815191525460401c1615611a8157565b631afcd79f60e31b60005260046000fdfe9016d09d72d40fdae2fd8ceac6b6234c7706214fd39c1cd1e609a0528c199300f0c57e16840df040f15088dc2f81fe391c3923bec73e23a9662efc9c229c6a00a2646970667358221220f9a6ed97881bc7d8baa9a9d3724271f0645b73aaed96a63bdd45f76e3daa05ed64736f6c634300081c0033",
  "linkReferences": {},
  "deployedLinkReferences": {}
}